{
  "contractName": "AddCategory",
  "abi": [
    {
      "inputs": [],
      "payable": false,
      "stateMutability": "nonpayable",
      "type": "constructor"
    },
    {
      "constant": true,
      "inputs": [
        {
          "internalType": "uint256",
          "name": "",
          "type": "uint256"
        }
      ],
      "name": "categories",
      "outputs": [
        {
          "internalType": "string",
          "name": "name",
          "type": "string"
        },
        {
          "internalType": "string",
          "name": "description",
          "type": "string"
        }
      ],
      "payable": false,
      "stateMutability": "view",
      "type": "function"
    },
    {
      "constant": true,
      "inputs": [],
      "name": "categoryCount",
      "outputs": [
        {
          "internalType": "uint256",
          "name": "",
          "type": "uint256"
        }
      ],
      "payable": false,
      "stateMutability": "view",
      "type": "function"
    },
    {
      "constant": false,
      "inputs": [
        {
          "internalType": "string",
          "name": "_name",
          "type": "string"
        },
        {
          "internalType": "string",
          "name": "_description",
          "type": "string"
        }
      ],
      "name": "addCategory",
      "outputs": [],
      "payable": false,
      "stateMutability": "nonpayable",
      "type": "function"
    }
  ],
  "bytecode": "0x608060405234801561001057600080fd5b5060006001819055506105f0806100286000396000f3fe608060405234801561001057600080fd5b50600436106100415760003560e01c80631bf703b2146100465780632be32dbb14610062578063c6cdbe5e14610080575b600080fd5b610060600480360361005b9190810190610395565b6100b1565b005b61006a61012d565b60405161007791906104a9565b60405180910390f35b61009a60048036036100959190810190610401565b610133565b6040516100a8929190610472565b60405180910390f35b60016000815480929190600101919050555060405180604001604052808381526020018281525060008060015481526020019081526020016000206000820151816000019080519060200190610108929190610287565b506020820151816001019080519060200190610125929190610287565b509050505050565b60015481565b6000602052806000526040600020600091509050806000018054600181600116156101000203166002900480601f0160208091040260200160405190810160405280929190818152602001828054600181600116156101000203166002900480156101df5780601f106101b4576101008083540402835291602001916101df565b820191906000526020600020905b8154815290600101906020018083116101c257829003601f168201915b505050505090806001018054600181600116156101000203166002900480601f01602080910402602001604051908101604052809291908181526020018280546001816001161561010002031660029004801561027d5780601f106102525761010080835404028352916020019161027d565b820191906000526020600020905b81548152906001019060200180831161026057829003601f168201915b5050505050905082565b828054600181600116156101000203166002900490600052602060002090601f016020900481019282601f106102c857805160ff19168380011785556102f6565b828001600101855582156102f6579182015b828111156102f55782518255916020019190600101906102da565b5b5090506103039190610307565b5090565b61032991905b8082111561032557600081600090555060010161030d565b5090565b90565b600082601f83011261033d57600080fd5b813561035061034b826104f1565b6104c4565b9150808252602083016020830185838301111561036c57600080fd5b610377838284610543565b50505092915050565b60008135905061038f81610596565b92915050565b600080604083850312156103a857600080fd5b600083013567ffffffffffffffff8111156103c257600080fd5b6103ce8582860161032c565b925050602083013567ffffffffffffffff8111156103eb57600080fd5b6103f78582860161032c565b9150509250929050565b60006020828403121561041357600080fd5b600061042184828501610380565b91505092915050565b60006104358261051d565b61043f8185610528565b935061044f818560208601610552565b61045881610585565b840191505092915050565b61046c81610539565b82525050565b6000604082019050818103600083015261048c818561042a565b905081810360208301526104a0818461042a565b90509392505050565b60006020820190506104be6000830184610463565b92915050565b6000604051905081810181811067ffffffffffffffff821117156104e757600080fd5b8060405250919050565b600067ffffffffffffffff82111561050857600080fd5b601f19601f8301169050602081019050919050565b600081519050919050565b600082825260208201905092915050565b6000819050919050565b82818337600083830152505050565b60005b83811015610570578082015181840152602081019050610555565b8381111561057f576000848401525b50505050565b6000601f19601f8301169050919050565b61059f81610539565b81146105aa57600080fd5b5056fea365627a7a72315820ec33e5ec04f2d25c99c603c55004fa130764cc2056fcd819677d365f5808a5fa6c6578706572696d656e74616cf564736f6c63430005100040",
  "source": "pragma solidity ^0.5.16;\r\npragma experimental ABIEncoderV2;\r\n\r\ncontract AddCategory {\r\n    struct CategoryDetails {\r\n        string name;\r\n        string description;\r\n    }\r\n\r\n    mapping(uint => CategoryDetails) public categories;\r\n    uint public categoryCount;\r\n\r\n    constructor() public {\r\n        categoryCount = 0; // Initialize category count\r\n    }\r\n\r\n    function addCategory(string memory _name, string memory _description) public {\r\n        categoryCount++;\r\n        categories[categoryCount] = CategoryDetails(_name, _description);\r\n    }\r\n}",
  "sourcePath": "C:\\Users\\Dhanya\\FYProject\\contracts\\AddCategory.sol",
  "compiler": {
    "name": "solc",
    "version": "0.5.16+commit.9c3226ce.Emscripten.clang"
  },
  "schemaVersion": "3.4.16",
  "updatedAt": "2024-09-05T09:15:58.846Z",
  "networkType": "ethereum",
  "devdoc": {
    "methods": {}
  },
  "userdoc": {
    "methods": {}
  }
}