{
  "contractName": "AddDrug",
  "abi": [
    {
      "inputs": [],
      "payable": false,
      "stateMutability": "nonpayable",
      "type": "constructor"
    },
    {
      "constant": true,
      "inputs": [],
      "name": "drugCount",
      "outputs": [
        {
          "internalType": "uint256",
          "name": "",
          "type": "uint256"
        }
      ],
      "payable": false,
      "stateMutability": "view",
      "type": "function"
    },
    {
      "constant": true,
      "inputs": [
        {
          "internalType": "uint256",
          "name": "",
          "type": "uint256"
        }
      ],
      "name": "drugs",
      "outputs": [
        {
          "internalType": "string",
          "name": "name",
          "type": "string"
        },
        {
          "internalType": "string",
          "name": "category",
          "type": "string"
        },
        {
          "internalType": "string",
          "name": "description",
          "type": "string"
        },
        {
          "internalType": "string",
          "name": "manufacturer",
          "type": "string"
        },
        {
          "internalType": "string",
          "name": "batchNumber",
          "type": "string"
        },
        {
          "internalType": "string",
          "name": "manufacturingDate",
          "type": "string"
        },
        {
          "internalType": "string",
          "name": "expiryDate",
          "type": "string"
        },
        {
          "internalType": "uint256",
          "name": "quantity",
          "type": "uint256"
        },
        {
          "internalType": "string",
          "name": "storageConditions",
          "type": "string"
        }
      ],
      "payable": false,
      "stateMutability": "view",
      "type": "function"
    },
    {
      "constant": false,
      "inputs": [
        {
          "components": [
            {
              "internalType": "string",
              "name": "name",
              "type": "string"
            },
            {
              "internalType": "string",
              "name": "category",
              "type": "string"
            },
            {
              "internalType": "string",
              "name": "description",
              "type": "string"
            },
            {
              "internalType": "string",
              "name": "manufacturer",
              "type": "string"
            },
            {
              "internalType": "string",
              "name": "batchNumber",
              "type": "string"
            },
            {
              "internalType": "string",
              "name": "manufacturingDate",
              "type": "string"
            },
            {
              "internalType": "string",
              "name": "expiryDate",
              "type": "string"
            },
            {
              "internalType": "uint256",
              "name": "quantity",
              "type": "uint256"
            },
            {
              "internalType": "string",
              "name": "storageConditions",
              "type": "string"
            }
          ],
          "internalType": "struct AddDrug.Drug",
          "name": "newDrug",
          "type": "tuple"
        }
      ],
      "name": "addDrug",
      "outputs": [],
      "payable": false,
      "stateMutability": "nonpayable",
      "type": "function"
    }
  ],
  "bytecode": "0x608060405234801561001057600080fd5b506000600181905550610c54806100286000396000f3fe608060405234801561001057600080fd5b50600436106100415760003560e01c80637577ca3714610046578063af118ce214610064578063fca5e61e14610080575b600080fd5b61004e6100b8565b60405161005b9190610b0d565b60405180910390f35b61007e60048036036100799190810190610996565b6100be565b005b61009a600480360361009591908101906109d7565b6101de565b6040516100af99989796959493929190610a48565b60405180910390f35b60015481565b60016000815480929190600101919050555080600080600154815260200190815260200160002060008201518160000190805190602001906101019291906106ec565b50602082015181600101908051906020019061011e9291906106ec565b50604082015181600201908051906020019061013b9291906106ec565b5060608201518160030190805190602001906101589291906106ec565b5060808201518160040190805190602001906101759291906106ec565b5060a08201518160050190805190602001906101929291906106ec565b5060c08201518160060190805190602001906101af9291906106ec565b5060e082015181600701556101008201518160080190805190602001906101d79291906106ec565b5090505050565b6000602052806000526040600020600091509050806000018054600181600116156101000203166002900480601f01602080910402602001604051908101604052809291908181526020018280546001816001161561010002031660029004801561028a5780601f1061025f5761010080835404028352916020019161028a565b820191906000526020600020905b81548152906001019060200180831161026d57829003601f168201915b505050505090806001018054600181600116156101000203166002900480601f0160208091040260200160405190810160405280929190818152602001828054600181600116156101000203166002900480156103285780601f106102fd57610100808354040283529160200191610328565b820191906000526020600020905b81548152906001019060200180831161030b57829003601f168201915b505050505090806002018054600181600116156101000203166002900480601f0160208091040260200160405190810160405280929190818152602001828054600181600116156101000203166002900480156103c65780601f1061039b576101008083540402835291602001916103c6565b820191906000526020600020905b8154815290600101906020018083116103a957829003601f168201915b505050505090806003018054600181600116156101000203166002900480601f0160208091040260200160405190810160405280929190818152602001828054600181600116156101000203166002900480156104645780601f1061043957610100808354040283529160200191610464565b820191906000526020600020905b81548152906001019060200180831161044757829003601f168201915b505050505090806004018054600181600116156101000203166002900480601f0160208091040260200160405190810160405280929190818152602001828054600181600116156101000203166002900480156105025780601f106104d757610100808354040283529160200191610502565b820191906000526020600020905b8154815290600101906020018083116104e557829003601f168201915b505050505090806005018054600181600116156101000203166002900480601f0160208091040260200160405190810160405280929190818152602001828054600181600116156101000203166002900480156105a05780601f10610575576101008083540402835291602001916105a0565b820191906000526020600020905b81548152906001019060200180831161058357829003601f168201915b505050505090806006018054600181600116156101000203166002900480601f01602080910402602001604051908101604052809291908181526020018280546001816001161561010002031660029004801561063e5780601f106106135761010080835404028352916020019161063e565b820191906000526020600020905b81548152906001019060200180831161062157829003601f168201915b505050505090806007015490806008018054600181600116156101000203166002900480601f0160208091040260200160405190810160405280929190818152602001828054600181600116156101000203166002900480156106e25780601f106106b7576101008083540402835291602001916106e2565b820191906000526020600020905b8154815290600101906020018083116106c557829003601f168201915b5050505050905089565b828054600181600116156101000203166002900490600052602060002090601f016020900481019282601f1061072d57805160ff191683800117855561075b565b8280016001018555821561075b579182015b8281111561075a57825182559160200191906001019061073f565b5b509050610768919061076c565b5090565b61078e91905b8082111561078a576000816000905550600101610772565b5090565b90565b600082601f8301126107a257600080fd5b81356107b56107b082610b55565b610b28565b915080825260208301602083018583830111156107d157600080fd5b6107dc838284610ba7565b50505092915050565b600061012082840312156107f857600080fd5b610803610120610b28565b9050600082013567ffffffffffffffff81111561081f57600080fd5b61082b84828501610791565b600083015250602082013567ffffffffffffffff81111561084b57600080fd5b61085784828501610791565b602083015250604082013567ffffffffffffffff81111561087757600080fd5b61088384828501610791565b604083015250606082013567ffffffffffffffff8111156108a357600080fd5b6108af84828501610791565b606083015250608082013567ffffffffffffffff8111156108cf57600080fd5b6108db84828501610791565b60808301525060a082013567ffffffffffffffff8111156108fb57600080fd5b61090784828501610791565b60a08301525060c082013567ffffffffffffffff81111561092757600080fd5b61093384828501610791565b60c08301525060e061094784828501610981565b60e08301525061010082013567ffffffffffffffff81111561096857600080fd5b61097484828501610791565b6101008301525092915050565b60008135905061099081610bfa565b92915050565b6000602082840312156109a857600080fd5b600082013567ffffffffffffffff8111156109c257600080fd5b6109ce848285016107e5565b91505092915050565b6000602082840312156109e957600080fd5b60006109f784828501610981565b91505092915050565b6000610a0b82610b81565b610a158185610b8c565b9350610a25818560208601610bb6565b610a2e81610be9565b840191505092915050565b610a4281610b9d565b82525050565b6000610120820190508181036000830152610a63818c610a00565b90508181036020830152610a77818b610a00565b90508181036040830152610a8b818a610a00565b90508181036060830152610a9f8189610a00565b90508181036080830152610ab38188610a00565b905081810360a0830152610ac78187610a00565b905081810360c0830152610adb8186610a00565b9050610aea60e0830185610a39565b818103610100830152610afd8184610a00565b90509a9950505050505050505050565b6000602082019050610b226000830184610a39565b92915050565b6000604051905081810181811067ffffffffffffffff82111715610b4b57600080fd5b8060405250919050565b600067ffffffffffffffff821115610b6c57600080fd5b601f19601f8301169050602081019050919050565b600081519050919050565b600082825260208201905092915050565b6000819050919050565b82818337600083830152505050565b60005b83811015610bd4578082015181840152602081019050610bb9565b83811115610be3576000848401525b50505050565b6000601f19601f8301169050919050565b610c0381610b9d565b8114610c0e57600080fd5b5056fea365627a7a7231582029e28663dca4c5c15479610f8f79849ac9bb5e71d0ef4d3b3422e45c636d9c3e6c6578706572696d656e74616cf564736f6c63430005100040",
  "source": "pragma solidity ^0.5.16;\r\npragma experimental ABIEncoderV2;\r\n\r\ncontract AddDrug {\r\n    struct Drug {\r\n        string name;\r\n        string category;\r\n        string description;\r\n        string manufacturer;\r\n        string batchNumber;\r\n        string manufacturingDate;\r\n        string expiryDate;\r\n        uint quantity;\r\n        string storageConditions;\r\n    }\r\n\r\n    mapping(uint => Drug) public drugs;\r\n    uint public drugCount;\r\n\r\n    constructor() public {\r\n        drugCount = 0; // Initialize drug count\r\n    }\r\n\r\n    function addDrug(\r\n        Drug memory newDrug\r\n    ) public {\r\n        drugCount++;\r\n        drugs[drugCount] = newDrug;\r\n    }\r\n}\r\n",
  "sourcePath": "C:\\Users\\Dhanya\\FYProject\\contracts\\AddDrug.sol",
  "compiler": {
    "name": "solc",
    "version": "0.5.16+commit.9c3226ce.Emscripten.clang"
  },
  "schemaVersion": "3.4.16",
  "updatedAt": "2024-09-05T09:15:58.843Z",
  "networkType": "ethereum",
  "devdoc": {
    "methods": {}
  },
  "userdoc": {
    "methods": {}
  }
}