{
  "contractName": "AddDrug",
  "abi": [
    {
      "inputs": [],
      "payable": false,
      "stateMutability": "nonpayable",
      "type": "constructor"
    },
    {
      "constant": true,
      "inputs": [],
      "name": "drugCount",
      "outputs": [
        {
          "internalType": "uint256",
          "name": "",
          "type": "uint256"
        }
      ],
      "payable": false,
      "stateMutability": "view",
      "type": "function"
    },
    {
      "constant": true,
      "inputs": [
        {
          "internalType": "uint256",
          "name": "",
          "type": "uint256"
        }
      ],
      "name": "drugs",
      "outputs": [
        {
          "internalType": "string",
          "name": "name",
          "type": "string"
        },
        {
          "internalType": "string",
          "name": "category",
          "type": "string"
        },
        {
          "internalType": "string",
          "name": "description",
          "type": "string"
        },
        {
          "internalType": "string",
          "name": "manufacturer",
          "type": "string"
        },
        {
          "internalType": "string",
          "name": "batchNumber",
          "type": "string"
        },
        {
          "internalType": "string",
          "name": "manufacturingDate",
          "type": "string"
        },
        {
          "internalType": "string",
          "name": "expiryDate",
          "type": "string"
        },
        {
          "internalType": "uint256",
          "name": "quantity",
          "type": "uint256"
        },
        {
          "internalType": "string",
          "name": "storageConditions",
          "type": "string"
        },
        {
          "internalType": "uint256",
          "name": "blockNumber",
          "type": "uint256"
        }
      ],
      "payable": false,
      "stateMutability": "view",
      "type": "function"
    },
    {
      "constant": false,
      "inputs": [
        {
          "internalType": "string",
          "name": "name",
          "type": "string"
        },
        {
          "internalType": "string",
          "name": "category",
          "type": "string"
        },
        {
          "internalType": "string",
          "name": "description",
          "type": "string"
        },
        {
          "internalType": "string",
          "name": "manufacturer",
          "type": "string"
        },
        {
          "internalType": "string",
          "name": "batchNumber",
          "type": "string"
        },
        {
          "internalType": "string",
          "name": "manufacturingDate",
          "type": "string"
        },
        {
          "internalType": "string",
          "name": "expiryDate",
          "type": "string"
        },
        {
          "internalType": "uint256",
          "name": "quantity",
          "type": "uint256"
        },
        {
          "internalType": "string",
          "name": "storageConditions",
          "type": "string"
        }
      ],
      "name": "addDrug",
      "outputs": [],
      "payable": false,
      "stateMutability": "nonpayable",
      "type": "function"
    }
  ],
  "bytecode": "0x608060405234801561001057600080fd5b506000600181905550610c6b806100286000396000f3fe608060405234801561001057600080fd5b50600436106100415760003560e01c80637577ca3714610046578063d234553c14610064578063fca5e61e14610080575b600080fd5b61004e6100b9565b60405161005b9190610b24565b60405180910390f35b61007e60048036036100799190810190610859565b6100bf565b005b61009a600480360361009591908101906109df565b610237565b6040516100b09a99989796959493929190610a50565b60405180910390f35b60015481565b6001600081548092919060010191905055506040518061014001604052808a8152602001898152602001888152602001878152602001868152602001858152602001848152602001838152602001828152602001438152506000806001548152602001908152602001600020600082015181600001908051906020019061014792919061074b565b50602082015181600101908051906020019061016492919061074b565b50604082015181600201908051906020019061018192919061074b565b50606082015181600301908051906020019061019e92919061074b565b5060808201518160040190805190602001906101bb92919061074b565b5060a08201518160050190805190602001906101d892919061074b565b5060c08201518160060190805190602001906101f592919061074b565b5060e0820151816007015561010082015181600801908051906020019061021d92919061074b565b506101208201518160090155905050505050505050505050565b6000602052806000526040600020600091509050806000018054600181600116156101000203166002900480601f0160208091040260200160405190810160405280929190818152602001828054600181600116156101000203166002900480156102e35780601f106102b8576101008083540402835291602001916102e3565b820191906000526020600020905b8154815290600101906020018083116102c657829003601f168201915b505050505090806001018054600181600116156101000203166002900480601f0160208091040260200160405190810160405280929190818152602001828054600181600116156101000203166002900480156103815780601f1061035657610100808354040283529160200191610381565b820191906000526020600020905b81548152906001019060200180831161036457829003601f168201915b505050505090806002018054600181600116156101000203166002900480601f01602080910402602001604051908101604052809291908181526020018280546001816001161561010002031660029004801561041f5780601f106103f45761010080835404028352916020019161041f565b820191906000526020600020905b81548152906001019060200180831161040257829003601f168201915b505050505090806003018054600181600116156101000203166002900480601f0160208091040260200160405190810160405280929190818152602001828054600181600116156101000203166002900480156104bd5780601f10610492576101008083540402835291602001916104bd565b820191906000526020600020905b8154815290600101906020018083116104a057829003601f168201915b505050505090806004018054600181600116156101000203166002900480601f01602080910402602001604051908101604052809291908181526020018280546001816001161561010002031660029004801561055b5780601f106105305761010080835404028352916020019161055b565b820191906000526020600020905b81548152906001019060200180831161053e57829003601f168201915b505050505090806005018054600181600116156101000203166002900480601f0160208091040260200160405190810160405280929190818152602001828054600181600116156101000203166002900480156105f95780601f106105ce576101008083540402835291602001916105f9565b820191906000526020600020905b8154815290600101906020018083116105dc57829003601f168201915b505050505090806006018054600181600116156101000203166002900480601f0160208091040260200160405190810160405280929190818152602001828054600181600116156101000203166002900480156106975780601f1061066c57610100808354040283529160200191610697565b820191906000526020600020905b81548152906001019060200180831161067a57829003601f168201915b505050505090806007015490806008018054600181600116156101000203166002900480601f01602080910402602001604051908101604052809291908181526020018280546001816001161561010002031660029004801561073b5780601f106107105761010080835404028352916020019161073b565b820191906000526020600020905b81548152906001019060200180831161071e57829003601f168201915b505050505090806009015490508a565b828054600181600116156101000203166002900490600052602060002090601f016020900481019282601f1061078c57805160ff19168380011785556107ba565b828001600101855582156107ba579182015b828111156107b957825182559160200191906001019061079e565b5b5090506107c791906107cb565b5090565b6107ed91905b808211156107e95760008160009055506001016107d1565b5090565b90565b600082601f83011261080157600080fd5b813561081461080f82610b6c565b610b3f565b9150808252602083016020830185838301111561083057600080fd5b61083b838284610bbe565b50505092915050565b60008135905061085381610c11565b92915050565b60008060008060008060008060006101208a8c03121561087857600080fd5b60008a013567ffffffffffffffff81111561089257600080fd5b61089e8c828d016107f0565b99505060208a013567ffffffffffffffff8111156108bb57600080fd5b6108c78c828d016107f0565b98505060408a013567ffffffffffffffff8111156108e457600080fd5b6108f08c828d016107f0565b97505060608a013567ffffffffffffffff81111561090d57600080fd5b6109198c828d016107f0565b96505060808a013567ffffffffffffffff81111561093657600080fd5b6109428c828d016107f0565b95505060a08a013567ffffffffffffffff81111561095f57600080fd5b61096b8c828d016107f0565b94505060c08a013567ffffffffffffffff81111561098857600080fd5b6109948c828d016107f0565b93505060e06109a58c828d01610844565b9250506101008a013567ffffffffffffffff8111156109c357600080fd5b6109cf8c828d016107f0565b9150509295985092959850929598565b6000602082840312156109f157600080fd5b60006109ff84828501610844565b91505092915050565b6000610a1382610b98565b610a1d8185610ba3565b9350610a2d818560208601610bcd565b610a3681610c00565b840191505092915050565b610a4a81610bb4565b82525050565b6000610140820190508181036000830152610a6b818d610a08565b90508181036020830152610a7f818c610a08565b90508181036040830152610a93818b610a08565b90508181036060830152610aa7818a610a08565b90508181036080830152610abb8189610a08565b905081810360a0830152610acf8188610a08565b905081810360c0830152610ae38187610a08565b9050610af260e0830186610a41565b818103610100830152610b058185610a08565b9050610b15610120830184610a41565b9b9a5050505050505050505050565b6000602082019050610b396000830184610a41565b92915050565b6000604051905081810181811067ffffffffffffffff82111715610b6257600080fd5b8060405250919050565b600067ffffffffffffffff821115610b8357600080fd5b601f19601f8301169050602081019050919050565b600081519050919050565b600082825260208201905092915050565b6000819050919050565b82818337600083830152505050565b60005b83811015610beb578082015181840152602081019050610bd0565b83811115610bfa576000848401525b50505050565b6000601f19601f8301169050919050565b610c1a81610bb4565b8114610c2557600080fd5b5056fea365627a7a7231582063abaeac16e747075872654903b4fc43ed71da153ee317c1830205bd2bf392a06c6578706572696d656e74616cf564736f6c63430005100040",
  "source": "pragma solidity ^0.5.16;\r\npragma experimental ABIEncoderV2;\r\n\r\ncontract AddDrug {\r\n    struct Drug {\r\n        string name;\r\n        string category;\r\n        string description;\r\n        string manufacturer;\r\n        string batchNumber;\r\n        string manufacturingDate;\r\n        string expiryDate;\r\n        uint quantity;\r\n        string storageConditions;\r\n        uint blockNumber; // New field to store block number\r\n    }\r\n\r\n    mapping(uint => Drug) public drugs;\r\n    uint public drugCount;\r\n\r\n    constructor() public {\r\n        drugCount = 0; // Initialize drug count\r\n    }\r\n\r\n    function addDrug(\r\n        string memory name,\r\n        string memory category,\r\n        string memory description,\r\n        string memory manufacturer,\r\n        string memory batchNumber,\r\n        string memory manufacturingDate,\r\n        string memory expiryDate,\r\n        uint quantity,\r\n        string memory storageConditions\r\n    ) public {\r\n        drugCount++;\r\n\r\n        // Store the drug details along with the current block number\r\n        drugs[drugCount] = Drug({\r\n            name: name,\r\n            category: category,\r\n            description: description,\r\n            manufacturer: manufacturer,\r\n            batchNumber: batchNumber,\r\n            manufacturingDate: manufacturingDate,\r\n            expiryDate: expiryDate,\r\n            quantity: quantity,\r\n            storageConditions: storageConditions,\r\n            blockNumber: block.number // Capture the current block number\r\n        });\r\n    }\r\n}",
  "sourcePath": "C:\\Users\\Dhanya\\FYProject\\contracts\\AddDrug.sol",
  "compiler": {
    "name": "solc",
    "version": "0.5.16+commit.9c3226ce.Emscripten.clang"
  },
  "schemaVersion": "3.4.16",
  "updatedAt": "2024-10-28T04:06:03.561Z",
  "networkType": "ethereum",
  "devdoc": {
    "methods": {}
  },
  "userdoc": {
    "methods": {}
  }
}