{
  "contractName": "BoxAccessControl",
  "abi": [
    {
      "inputs": [],
      "payable": false,
      "stateMutability": "nonpayable",
      "type": "constructor"
    },
    {
      "constant": true,
      "inputs": [
        {
          "internalType": "uint256",
          "name": "",
          "type": "uint256"
        }
      ],
      "name": "boxAddresses",
      "outputs": [
        {
          "internalType": "address",
          "name": "",
          "type": "address"
        }
      ],
      "payable": false,
      "stateMutability": "view",
      "type": "function"
    },
    {
      "constant": true,
      "inputs": [
        {
          "internalType": "uint256",
          "name": "boxNumber",
          "type": "uint256"
        },
        {
          "internalType": "address",
          "name": "_address",
          "type": "address"
        }
      ],
      "name": "isAuthorized",
      "outputs": [
        {
          "internalType": "bool",
          "name": "",
          "type": "bool"
        }
      ],
      "payable": false,
      "stateMutability": "view",
      "type": "function"
    }
  ],
  "bytecode": "0x608060405234801561001057600080fd5b5073baecf44a36291552daddacd14476425f29408edb6000806001815260200190815260200160002060006101000a81548173ffffffffffffffffffffffffffffffffffffffff021916908373ffffffffffffffffffffffffffffffffffffffff16021790555073af5c53c43d90b9081303930384c15565beabddbc6000806002815260200190815260200160002060006101000a81548173ffffffffffffffffffffffffffffffffffffffff021916908373ffffffffffffffffffffffffffffffffffffffff16021790555073d5a08c1ba7cbebb818c63df665f87f5e6ca301856000806003815260200190815260200160002060006101000a81548173ffffffffffffffffffffffffffffffffffffffff021916908373ffffffffffffffffffffffffffffffffffffffff1602179055507327e5db176e2929f6593954093d3bee0735452c086000806004815260200190815260200160002060006101000a81548173ffffffffffffffffffffffffffffffffffffffff021916908373ffffffffffffffffffffffffffffffffffffffff16021790555073902f809dc061751abb60d9b5e0f85fda4f1eab796000806005815260200190815260200160002060006101000a81548173ffffffffffffffffffffffffffffffffffffffff021916908373ffffffffffffffffffffffffffffffffffffffff16021790555073582aec35dac3f94f29fa5bf70d204972280be0ee6000806006815260200190815260200160002060006101000a81548173ffffffffffffffffffffffffffffffffffffffff021916908373ffffffffffffffffffffffffffffffffffffffff16021790555073ab0e868db39af9a250f112b51ae1190f610411ed6000806007815260200190815260200160002060006101000a81548173ffffffffffffffffffffffffffffffffffffffff021916908373ffffffffffffffffffffffffffffffffffffffff1602179055506101e2806102ea6000396000f3fe608060405234801561001057600080fd5b50600436106100365760003560e01c8063609c6d7f1461003b578063cf04ed41146100a1575b600080fd5b6100876004803603604081101561005157600080fd5b8101908080359060200190929190803573ffffffffffffffffffffffffffffffffffffffff16906020019092919050505061010f565b604051808215151515815260200191505060405180910390f35b6100cd600480360360208110156100b757600080fd5b810190808035906020019092919050505061017a565b604051808273ffffffffffffffffffffffffffffffffffffffff1673ffffffffffffffffffffffffffffffffffffffff16815260200191505060405180910390f35b60008173ffffffffffffffffffffffffffffffffffffffff1660008085815260200190815260200160002060009054906101000a900473ffffffffffffffffffffffffffffffffffffffff1673ffffffffffffffffffffffffffffffffffffffff1614905092915050565b60006020528060005260406000206000915054906101000a900473ffffffffffffffffffffffffffffffffffffffff168156fea265627a7a723158207bbe9446e37653843605e525a4645ac2425c66e9f71fbc84ec5c0d3be230768664736f6c63430005100032",
  "source": "// SPDX-License-Identifier: MIT\r\npragma solidity ^0.5.16;\r\n\r\ncontract BoxAccessControl {\r\n    mapping(uint => address) public boxAddresses; // Map box numbers to addresses\r\n\r\n    constructor() public {\r\n        // Initialize box addresses (replace with actual addresses)\r\n        boxAddresses[1] = 0xBaeCF44A36291552DaDDACD14476425F29408eDB; // Box 1 Address\r\n        boxAddresses[2] = 0xaf5C53C43D90b9081303930384C15565bEAbdDBC; // Box 2 Address\r\n        boxAddresses[3] = 0xd5a08c1bA7cBEbb818c63df665F87f5e6ca30185; // Box 3 Address\r\n        boxAddresses[4] = 0x27E5DB176E2929F6593954093D3BEe0735452C08; // Box 4 Address\r\n        boxAddresses[5] = 0x902f809Dc061751abB60D9B5E0F85FdA4F1EAb79; // Box 5 Address\r\n        boxAddresses[6] = 0x582aEc35daC3f94F29fA5bF70D204972280be0Ee; // Box 6 Address\r\n        boxAddresses[7] = 0xaB0E868dB39AF9A250F112B51ae1190f610411ED; // Box 7 Address\r\n    }\r\n\r\n    function isAuthorized(uint boxNumber, address _address) public view returns (bool) {\r\n        return boxAddresses[boxNumber] == _address;\r\n    }\r\n}\r\n",
  "sourcePath": "C:\\Users\\Dhanya\\FYProject\\contracts\\BoxAccessControl.sol",
  "compiler": {
    "name": "solc",
    "version": "0.5.16+commit.9c3226ce.Emscripten.clang"
  },
  "schemaVersion": "3.4.16",
  "updatedAt": "2024-10-28T04:06:03.566Z",
  "networkType": "ethereum",
  "devdoc": {
    "methods": {}
  },
  "userdoc": {
    "methods": {}
  }
}