{
  "contractName": "DrugLifecycle",
  "abi": [
    {
      "constant": true,
      "inputs": [
        {
          "internalType": "uint256",
          "name": "",
          "type": "uint256"
        }
      ],
      "name": "distributions",
      "outputs": [
        {
          "internalType": "string",
          "name": "distributionBatch",
          "type": "string"
        },
        {
          "internalType": "string",
          "name": "distributorName",
          "type": "string"
        },
        {
          "internalType": "string",
          "name": "dispatchDate",
          "type": "string"
        },
        {
          "internalType": "string",
          "name": "dispatchTime",
          "type": "string"
        },
        {
          "internalType": "uint256",
          "name": "quantityDispatched",
          "type": "uint256"
        }
      ],
      "payable": false,
      "stateMutability": "view",
      "type": "function"
    },
    {
      "constant": true,
      "inputs": [
        {
          "internalType": "uint256",
          "name": "",
          "type": "uint256"
        }
      ],
      "name": "labTests",
      "outputs": [
        {
          "internalType": "string",
          "name": "labTestId",
          "type": "string"
        },
        {
          "internalType": "string",
          "name": "labTestDate",
          "type": "string"
        },
        {
          "internalType": "string",
          "name": "labTestTime",
          "type": "string"
        },
        {
          "internalType": "string",
          "name": "labName",
          "type": "string"
        },
        {
          "internalType": "string",
          "name": "testerName",
          "type": "string"
        },
        {
          "internalType": "string",
          "name": "result",
          "type": "string"
        }
      ],
      "payable": false,
      "stateMutability": "view",
      "type": "function"
    },
    {
      "constant": true,
      "inputs": [
        {
          "internalType": "uint256",
          "name": "",
          "type": "uint256"
        },
        {
          "internalType": "uint256",
          "name": "",
          "type": "uint256"
        }
      ],
      "name": "lockedBoxes",
      "outputs": [
        {
          "internalType": "bool",
          "name": "",
          "type": "bool"
        }
      ],
      "payable": false,
      "stateMutability": "view",
      "type": "function"
    },
    {
      "constant": true,
      "inputs": [
        {
          "internalType": "uint256",
          "name": "",
          "type": "uint256"
        }
      ],
      "name": "logisticsProviders",
      "outputs": [
        {
          "internalType": "string",
          "name": "logisticsProvider",
          "type": "string"
        },
        {
          "internalType": "string",
          "name": "pickupDate",
          "type": "string"
        },
        {
          "internalType": "string",
          "name": "pickupTime",
          "type": "string"
        },
        {
          "internalType": "string",
          "name": "deliveryDate",
          "type": "string"
        },
        {
          "internalType": "string",
          "name": "deliveryTime",
          "type": "string"
        }
      ],
      "payable": false,
      "stateMutability": "view",
      "type": "function"
    },
    {
      "constant": true,
      "inputs": [
        {
          "internalType": "uint256",
          "name": "",
          "type": "uint256"
        }
      ],
      "name": "packagings",
      "outputs": [
        {
          "internalType": "string",
          "name": "packageBatch",
          "type": "string"
        },
        {
          "internalType": "string",
          "name": "packageDate",
          "type": "string"
        },
        {
          "internalType": "string",
          "name": "packageTime",
          "type": "string"
        },
        {
          "internalType": "uint256",
          "name": "quantityPackaged",
          "type": "uint256"
        },
        {
          "internalType": "string",
          "name": "packagingFacility",
          "type": "string"
        }
      ],
      "payable": false,
      "stateMutability": "view",
      "type": "function"
    },
    {
      "constant": true,
      "inputs": [
        {
          "internalType": "uint256",
          "name": "",
          "type": "uint256"
        }
      ],
      "name": "pharmacies",
      "outputs": [
        {
          "internalType": "string",
          "name": "pharmacyName",
          "type": "string"
        },
        {
          "internalType": "string",
          "name": "drugName",
          "type": "string"
        },
        {
          "internalType": "string",
          "name": "categoryName",
          "type": "string"
        },
        {
          "internalType": "string",
          "name": "drugDescription",
          "type": "string"
        },
        {
          "internalType": "string",
          "name": "manufactureDate",
          "type": "string"
        },
        {
          "internalType": "string",
          "name": "expiryDate",
          "type": "string"
        }
      ],
      "payable": false,
      "stateMutability": "view",
      "type": "function"
    },
    {
      "constant": true,
      "inputs": [
        {
          "internalType": "uint256",
          "name": "",
          "type": "uint256"
        }
      ],
      "name": "qualityControls",
      "outputs": [
        {
          "internalType": "string",
          "name": "testId",
          "type": "string"
        },
        {
          "internalType": "string",
          "name": "testDate",
          "type": "string"
        },
        {
          "internalType": "string",
          "name": "testTime",
          "type": "string"
        },
        {
          "internalType": "string",
          "name": "testerName",
          "type": "string"
        },
        {
          "internalType": "string",
          "name": "result",
          "type": "string"
        }
      ],
      "payable": false,
      "stateMutability": "view",
      "type": "function"
    },
    {
      "constant": true,
      "inputs": [
        {
          "internalType": "uint256",
          "name": "",
          "type": "uint256"
        }
      ],
      "name": "warehouses",
      "outputs": [
        {
          "internalType": "string",
          "name": "warehouseNumber",
          "type": "string"
        },
        {
          "internalType": "string",
          "name": "arrivalDate",
          "type": "string"
        },
        {
          "internalType": "string",
          "name": "arrivalTime",
          "type": "string"
        },
        {
          "internalType": "string",
          "name": "warehouseName",
          "type": "string"
        },
        {
          "internalType": "string",
          "name": "storageLocation",
          "type": "string"
        },
        {
          "internalType": "string",
          "name": "storageConditions",
          "type": "string"
        }
      ],
      "payable": false,
      "stateMutability": "view",
      "type": "function"
    },
    {
      "constant": false,
      "inputs": [
        {
          "internalType": "uint256",
          "name": "blockNumber",
          "type": "uint256"
        },
        {
          "internalType": "string",
          "name": "testId",
          "type": "string"
        },
        {
          "internalType": "string",
          "name": "testDate",
          "type": "string"
        },
        {
          "internalType": "string",
          "name": "testTime",
          "type": "string"
        },
        {
          "internalType": "string",
          "name": "testerName",
          "type": "string"
        },
        {
          "internalType": "string",
          "name": "result",
          "type": "string"
        }
      ],
      "name": "addQualityControl",
      "outputs": [],
      "payable": false,
      "stateMutability": "nonpayable",
      "type": "function"
    },
    {
      "constant": false,
      "inputs": [
        {
          "internalType": "uint256",
          "name": "blockNumber",
          "type": "uint256"
        },
        {
          "internalType": "string",
          "name": "packageBatch",
          "type": "string"
        },
        {
          "internalType": "string",
          "name": "packageDate",
          "type": "string"
        },
        {
          "internalType": "string",
          "name": "packageTime",
          "type": "string"
        },
        {
          "internalType": "uint256",
          "name": "quantityPackaged",
          "type": "uint256"
        },
        {
          "internalType": "string",
          "name": "packagingFacility",
          "type": "string"
        }
      ],
      "name": "addPackaging",
      "outputs": [],
      "payable": false,
      "stateMutability": "nonpayable",
      "type": "function"
    },
    {
      "constant": false,
      "inputs": [
        {
          "internalType": "uint256",
          "name": "blockNumber",
          "type": "uint256"
        },
        {
          "internalType": "string",
          "name": "labTestId",
          "type": "string"
        },
        {
          "internalType": "string",
          "name": "labTestDate",
          "type": "string"
        },
        {
          "internalType": "string",
          "name": "labTestTime",
          "type": "string"
        },
        {
          "internalType": "string",
          "name": "labName",
          "type": "string"
        },
        {
          "internalType": "string",
          "name": "testerName",
          "type": "string"
        },
        {
          "internalType": "string",
          "name": "result",
          "type": "string"
        }
      ],
      "name": "addLabTesting",
      "outputs": [],
      "payable": false,
      "stateMutability": "nonpayable",
      "type": "function"
    },
    {
      "constant": false,
      "inputs": [
        {
          "internalType": "uint256",
          "name": "blockNumber",
          "type": "uint256"
        },
        {
          "internalType": "string",
          "name": "distributionBatch",
          "type": "string"
        },
        {
          "internalType": "string",
          "name": "distributorName",
          "type": "string"
        },
        {
          "internalType": "string",
          "name": "dispatchDate",
          "type": "string"
        },
        {
          "internalType": "string",
          "name": "dispatchTime",
          "type": "string"
        },
        {
          "internalType": "uint256",
          "name": "quantityDispatched",
          "type": "uint256"
        }
      ],
      "name": "addDistribution",
      "outputs": [],
      "payable": false,
      "stateMutability": "nonpayable",
      "type": "function"
    },
    {
      "constant": false,
      "inputs": [
        {
          "internalType": "uint256",
          "name": "blockNumber",
          "type": "uint256"
        },
        {
          "internalType": "string",
          "name": "logisticsProvider",
          "type": "string"
        },
        {
          "internalType": "string",
          "name": "pickupDate",
          "type": "string"
        },
        {
          "internalType": "string",
          "name": "pickupTime",
          "type": "string"
        },
        {
          "internalType": "string",
          "name": "deliveryDate",
          "type": "string"
        },
        {
          "internalType": "string",
          "name": "deliveryTime",
          "type": "string"
        }
      ],
      "name": "addLogistics",
      "outputs": [],
      "payable": false,
      "stateMutability": "nonpayable",
      "type": "function"
    },
    {
      "constant": false,
      "inputs": [
        {
          "internalType": "uint256",
          "name": "blockNumber",
          "type": "uint256"
        },
        {
          "internalType": "string",
          "name": "warehouseNumber",
          "type": "string"
        },
        {
          "internalType": "string",
          "name": "arrivalDate",
          "type": "string"
        },
        {
          "internalType": "string",
          "name": "arrivalTime",
          "type": "string"
        },
        {
          "internalType": "string",
          "name": "warehouseName",
          "type": "string"
        },
        {
          "internalType": "string",
          "name": "storageLocation",
          "type": "string"
        },
        {
          "internalType": "string",
          "name": "storageConditions",
          "type": "string"
        }
      ],
      "name": "addWarehouse",
      "outputs": [],
      "payable": false,
      "stateMutability": "nonpayable",
      "type": "function"
    },
    {
      "constant": false,
      "inputs": [
        {
          "internalType": "uint256",
          "name": "blockNumber",
          "type": "uint256"
        },
        {
          "internalType": "string",
          "name": "pharmacyName",
          "type": "string"
        },
        {
          "internalType": "string",
          "name": "drugName",
          "type": "string"
        },
        {
          "internalType": "string",
          "name": "categoryName",
          "type": "string"
        },
        {
          "internalType": "string",
          "name": "drugDescription",
          "type": "string"
        },
        {
          "internalType": "string",
          "name": "manufactureDate",
          "type": "string"
        },
        {
          "internalType": "string",
          "name": "expiryDate",
          "type": "string"
        }
      ],
      "name": "addPharmacy",
      "outputs": [],
      "payable": false,
      "stateMutability": "nonpayable",
      "type": "function"
    }
  ],
  "bytecode": "0x608060405234801561001057600080fd5b50614ab1806100206000396000f3fe608060405234801561001057600080fd5b50600436106100f55760003560e01c806386f1863711610097578063a73dabed11610066578063a73dabed14611f9c578063b906679e14612354578063c8536c5514612675578063c989b4f3146126c5576100f5565b806386f18637146114cd57806389c30ae4146117615780638a5acd7314611a82578063a3bd2e1b14611d45576100f5565b806355529358116100d3578063555293581461096757806355d3a83814610bbe5780636ece9eb614610f7657806383c30fa01461120a576100f5565b80630adac9b3146100fa57806339c5838f146104b25780634487d3df14610775575b600080fd5b6104b0600480360360e081101561011057600080fd5b81019080803590602001909291908035906020019064010000000081111561013757600080fd5b82018360208201111561014957600080fd5b8035906020019184600183028401116401000000008311171561016b57600080fd5b91908080601f016020809104026020016040519081016040528093929190818152602001838380828437600081840152601f19601f820116905080830192505050505050509192919290803590602001906401000000008111156101ce57600080fd5b8201836020820111156101e057600080fd5b8035906020019184600183028401116401000000008311171561020257600080fd5b91908080601f016020809104026020016040519081016040528093929190818152602001838380828437600081840152601f19601f8201169050808301925050505050505091929192908035906020019064010000000081111561026557600080fd5b82018360208201111561027757600080fd5b8035906020019184600183028401116401000000008311171561029957600080fd5b91908080601f016020809104026020016040519081016040528093929190818152602001838380828437600081840152601f19601f820116905080830192505050505050509192919290803590602001906401000000008111156102fc57600080fd5b82018360208201111561030e57600080fd5b8035906020019184600183028401116401000000008311171561033057600080fd5b91908080601f016020809104026020016040519081016040528093929190818152602001838380828437600081840152601f19601f8201169050808301925050505050505091929192908035906020019064010000000081111561039357600080fd5b8201836020820111156103a557600080fd5b803590602001918460018302840111640100000000831117156103c757600080fd5b91908080601f016020809104026020016040519081016040528093929190818152602001838380828437600081840152601f19601f8201169050808301925050505050505091929192908035906020019064010000000081111561042a57600080fd5b82018360208201111561043c57600080fd5b8035906020019184600183028401116401000000008311171561045e57600080fd5b91908080601f016020809104026020016040519081016040528093929190818152602001838380828437600081840152601f19601f8201169050808301925050505050505091929192905050506128b7565b005b6104de600480360360208110156104c857600080fd5b8101908080359060200190929190505050612b09565b6040518080602001806020018060200180602001806020018060200187810387528d818151815260200191508051906020019080838360005b83811015610532578082015181840152602081019050610517565b50505050905090810190601f16801561055f5780820380516001836020036101000a031916815260200191505b5087810386528c818151815260200191508051906020019080838360005b8381101561059857808201518184015260208101905061057d565b50505050905090810190601f1680156105c55780820380516001836020036101000a031916815260200191505b5087810385528b818151815260200191508051906020019080838360005b838110156105fe5780820151818401526020810190506105e3565b50505050905090810190601f16801561062b5780820380516001836020036101000a031916815260200191505b5087810384528a818151815260200191508051906020019080838360005b83811015610664578082015181840152602081019050610649565b50505050905090810190601f1680156106915780820380516001836020036101000a031916815260200191505b50878103835289818151815260200191508051906020019080838360005b838110156106ca5780820151818401526020810190506106af565b50505050905090810190601f1680156106f75780820380516001836020036101000a031916815260200191505b50878103825288818151815260200191508051906020019080838360005b83811015610730578082015181840152602081019050610715565b50505050905090810190601f16801561075d5780820380516001836020036101000a031916815260200191505b509c5050505050505050505050505060405180910390f35b6107a16004803603602081101561078b57600080fd5b8101908080359060200190929190505050612ed5565b604051808060200180602001806020018060200186815260200185810385528a818151815260200191508051906020019080838360005b838110156107f35780820151818401526020810190506107d8565b50505050905090810190601f1680156108205780820380516001836020036101000a031916815260200191505b50858103845289818151815260200191508051906020019080838360005b8381101561085957808201518184015260208101905061083e565b50505050905090810190601f1680156108865780820380516001836020036101000a031916815260200191505b50858103835288818151815260200191508051906020019080838360005b838110156108bf5780820151818401526020810190506108a4565b50505050905090810190601f1680156108ec5780820380516001836020036101000a031916815260200191505b50858103825287818151815260200191508051906020019080838360005b8381101561092557808201518184015260208101905061090a565b50505050905090810190601f1680156109525780820380516001836020036101000a031916815260200191505b50995050505050505050505060405180910390f35b6109936004803603602081101561097d57600080fd5b810190808035906020019092919050505061316b565b60405180806020018060200180602001806020018060200186810386528b818151815260200191508051906020019080838360005b838110156109e35780820151818401526020810190506109c8565b50505050905090810190601f168015610a105780820380516001836020036101000a031916815260200191505b5086810385528a818151815260200191508051906020019080838360005b83811015610a49578082015181840152602081019050610a2e565b50505050905090810190601f168015610a765780820380516001836020036101000a031916815260200191505b50868103845289818151815260200191508051906020019080838360005b83811015610aaf578082015181840152602081019050610a94565b50505050905090810190601f168015610adc5780820380516001836020036101000a031916815260200191505b50868103835288818151815260200191508051906020019080838360005b83811015610b15578082015181840152602081019050610afa565b50505050905090810190601f168015610b425780820380516001836020036101000a031916815260200191505b50868103825287818151815260200191508051906020019080838360005b83811015610b7b578082015181840152602081019050610b60565b50505050905090810190601f168015610ba85780820380516001836020036101000a031916815260200191505b509a505050505050505050505060405180910390f35b610f74600480360360e0811015610bd457600080fd5b810190808035906020019092919080359060200190640100000000811115610bfb57600080fd5b820183602082011115610c0d57600080fd5b80359060200191846001830284011164010000000083111715610c2f57600080fd5b91908080601f016020809104026020016040519081016040528093929190818152602001838380828437600081840152601f19601f82011690508083019250505050505050919291929080359060200190640100000000811115610c9257600080fd5b820183602082011115610ca457600080fd5b80359060200191846001830284011164010000000083111715610cc657600080fd5b91908080601f016020809104026020016040519081016040528093929190818152602001838380828437600081840152601f19601f82011690508083019250505050505050919291929080359060200190640100000000811115610d2957600080fd5b820183602082011115610d3b57600080fd5b80359060200191846001830284011164010000000083111715610d5d57600080fd5b91908080601f016020809104026020016040519081016040528093929190818152602001838380828437600081840152601f19601f82011690508083019250505050505050919291929080359060200190640100000000811115610dc057600080fd5b820183602082011115610dd257600080fd5b80359060200191846001830284011164010000000083111715610df457600080fd5b91908080601f016020809104026020016040519081016040528093929190818152602001838380828437600081840152601f19601f82011690508083019250505050505050919291929080359060200190640100000000811115610e5757600080fd5b820183602082011115610e6957600080fd5b80359060200191846001830284011164010000000083111715610e8b57600080fd5b91908080601f016020809104026020016040519081016040528093929190818152602001838380828437600081840152601f19601f82011690508083019250505050505050919291929080359060200190640100000000811115610eee57600080fd5b820183602082011115610f0057600080fd5b80359060200191846001830284011164010000000083111715610f2257600080fd5b91908080601f016020809104026020016040519081016040528093929190818152602001838380828437600081840152601f19601f820116905080830192505050505050509192919290505050613499565b005b611208600480360360c0811015610f8c57600080fd5b810190808035906020019092919080359060200190640100000000811115610fb357600080fd5b820183602082011115610fc557600080fd5b80359060200191846001830284011164010000000083111715610fe757600080fd5b91908080601f016020809104026020016040519081016040528093929190818152602001838380828437600081840152601f19601f8201169050808301925050505050505091929192908035906020019064010000000081111561104a57600080fd5b82018360208201111561105c57600080fd5b8035906020019184600183028401116401000000008311171561107e57600080fd5b91908080601f016020809104026020016040519081016040528093929190818152602001838380828437600081840152601f19601f820116905080830192505050505050509192919290803590602001906401000000008111156110e157600080fd5b8201836020820111156110f357600080fd5b8035906020019184600183028401116401000000008311171561111557600080fd5b91908080601f016020809104026020016040519081016040528093929190818152602001838380828437600081840152601f19601f820116905080830192505050505050509192919290803590602001909291908035906020019064010000000081111561118257600080fd5b82018360208201111561119457600080fd5b803590602001918460018302840111640100000000831117156111b657600080fd5b91908080601f016020809104026020016040519081016040528093929190818152602001838380828437600081840152601f19601f8201169050808301925050505050505091929192905050506135d1565b005b6112366004803603602081101561122057600080fd5b81019080803590602001909291905050506136d2565b6040518080602001806020018060200180602001806020018060200187810387528d818151815260200191508051906020019080838360005b8381101561128a57808201518184015260208101905061126f565b50505050905090810190601f1680156112b75780820380516001836020036101000a031916815260200191505b5087810386528c818151815260200191508051906020019080838360005b838110156112f05780820151818401526020810190506112d5565b50505050905090810190601f16801561131d5780820380516001836020036101000a031916815260200191505b5087810385528b818151815260200191508051906020019080838360005b8381101561135657808201518184015260208101905061133b565b50505050905090810190601f1680156113835780820380516001836020036101000a031916815260200191505b5087810384528a818151815260200191508051906020019080838360005b838110156113bc5780820151818401526020810190506113a1565b50505050905090810190601f1680156113e95780820380516001836020036101000a031916815260200191505b50878103835289818151815260200191508051906020019080838360005b83811015611422578082015181840152602081019050611407565b50505050905090810190601f16801561144f5780820380516001836020036101000a031916815260200191505b50878103825288818151815260200191508051906020019080838360005b8381101561148857808201518184015260208101905061146d565b50505050905090810190601f1680156114b55780820380516001836020036101000a031916815260200191505b509c5050505050505050505050505060405180910390f35b61175f600480360360c08110156114e357600080fd5b81019080803590602001909291908035906020019064010000000081111561150a57600080fd5b82018360208201111561151c57600080fd5b8035906020019184600183028401116401000000008311171561153e57600080fd5b91908080601f016020809104026020016040519081016040528093929190818152602001838380828437600081840152601f19601f820116905080830192505050505050509192919290803590602001906401000000008111156115a157600080fd5b8201836020820111156115b357600080fd5b803590602001918460018302840111640100000000831117156115d557600080fd5b91908080601f016020809104026020016040519081016040528093929190818152602001838380828437600081840152601f19601f8201169050808301925050505050505091929192908035906020019064010000000081111561163857600080fd5b82018360208201111561164a57600080fd5b8035906020019184600183028401116401000000008311171561166c57600080fd5b91908080601f016020809104026020016040519081016040528093929190818152602001838380828437600081840152601f19601f820116905080830192505050505050509192919290803590602001906401000000008111156116cf57600080fd5b8201836020820111156116e157600080fd5b8035906020019184600183028401116401000000008311171561170357600080fd5b91908080601f016020809104026020016040519081016040528093929190818152602001838380828437600081840152601f19601f82011690508083019250505050505050919291929080359060200190929190505050613a9e565b005b611a80600480360360c081101561177757600080fd5b81019080803590602001909291908035906020019064010000000081111561179e57600080fd5b8201836020820111156117b057600080fd5b803590602001918460018302840111640100000000831117156117d257600080fd5b91908080601f016020809104026020016040519081016040528093929190818152602001838380828437600081840152601f19601f8201169050808301925050505050505091929192908035906020019064010000000081111561183557600080fd5b82018360208201111561184757600080fd5b8035906020019184600183028401116401000000008311171561186957600080fd5b91908080601f016020809104026020016040519081016040528093929190818152602001838380828437600081840152601f19601f820116905080830192505050505050509192919290803590602001906401000000008111156118cc57600080fd5b8201836020820111156118de57600080fd5b8035906020019184600183028401116401000000008311171561190057600080fd5b91908080601f016020809104026020016040519081016040528093929190818152602001838380828437600081840152601f19601f8201169050808301925050505050505091929192908035906020019064010000000081111561196357600080fd5b82018360208201111561197557600080fd5b8035906020019184600183028401116401000000008311171561199757600080fd5b91908080601f016020809104026020016040519081016040528093929190818152602001838380828437600081840152601f19601f820116905080830192505050505050509192919290803590602001906401000000008111156119fa57600080fd5b820183602082011115611a0c57600080fd5b80359060200191846001830284011164010000000083111715611a2e57600080fd5b91908080601f016020809104026020016040519081016040528093929190818152602001838380828437600081840152601f19601f820116905080830192505050505050509192919290505050613b9f565b005b611aae60048036036020811015611a9857600080fd5b8101908080359060200190929190505050613cb3565b6040518080602001806020018060200180602001806020018060200187810387528d818151815260200191508051906020019080838360005b83811015611b02578082015181840152602081019050611ae7565b50505050905090810190601f168015611b2f5780820380516001836020036101000a031916815260200191505b5087810386528c818151815260200191508051906020019080838360005b83811015611b68578082015181840152602081019050611b4d565b50505050905090810190601f168015611b955780820380516001836020036101000a031916815260200191505b5087810385528b818151815260200191508051906020019080838360005b83811015611bce578082015181840152602081019050611bb3565b50505050905090810190601f168015611bfb5780820380516001836020036101000a031916815260200191505b5087810384528a818151815260200191508051906020019080838360005b83811015611c34578082015181840152602081019050611c19565b50505050905090810190601f168015611c615780820380516001836020036101000a031916815260200191505b50878103835289818151815260200191508051906020019080838360005b83811015611c9a578082015181840152602081019050611c7f565b50505050905090810190601f168015611cc75780820380516001836020036101000a031916815260200191505b50878103825288818151815260200191508051906020019080838360005b83811015611d00578082015181840152602081019050611ce5565b50505050905090810190601f168015611d2d5780820380516001836020036101000a031916815260200191505b509c5050505050505050505050505060405180910390f35b611d7160048036036020811015611d5b57600080fd5b810190808035906020019092919050505061407f565b60405180806020018060200180602001806020018060200186810386528b818151815260200191508051906020019080838360005b83811015611dc1578082015181840152602081019050611da6565b50505050905090810190601f168015611dee5780820380516001836020036101000a031916815260200191505b5086810385528a818151815260200191508051906020019080838360005b83811015611e27578082015181840152602081019050611e0c565b50505050905090810190601f168015611e545780820380516001836020036101000a031916815260200191505b50868103845289818151815260200191508051906020019080838360005b83811015611e8d578082015181840152602081019050611e72565b50505050905090810190601f168015611eba5780820380516001836020036101000a031916815260200191505b50868103835288818151815260200191508051906020019080838360005b83811015611ef3578082015181840152602081019050611ed8565b50505050905090810190601f168015611f205780820380516001836020036101000a031916815260200191505b50868103825287818151815260200191508051906020019080838360005b83811015611f59578082015181840152602081019050611f3e565b50505050905090810190601f168015611f865780820380516001836020036101000a031916815260200191505b509a505050505050505050505060405180910390f35b612352600480360360e0811015611fb257600080fd5b810190808035906020019092919080359060200190640100000000811115611fd957600080fd5b820183602082011115611feb57600080fd5b8035906020019184600183028401116401000000008311171561200d57600080fd5b91908080601f016020809104026020016040519081016040528093929190818152602001838380828437600081840152601f19601f8201169050808301925050505050505091929192908035906020019064010000000081111561207057600080fd5b82018360208201111561208257600080fd5b803590602001918460018302840111640100000000831117156120a457600080fd5b91908080601f016020809104026020016040519081016040528093929190818152602001838380828437600081840152601f19601f8201169050808301925050505050505091929192908035906020019064010000000081111561210757600080fd5b82018360208201111561211957600080fd5b8035906020019184600183028401116401000000008311171561213b57600080fd5b91908080601f016020809104026020016040519081016040528093929190818152602001838380828437600081840152601f19601f8201169050808301925050505050505091929192908035906020019064010000000081111561219e57600080fd5b8201836020820111156121b057600080fd5b803590602001918460018302840111640100000000831117156121d257600080fd5b91908080601f016020809104026020016040519081016040528093929190818152602001838380828437600081840152601f19601f8201169050808301925050505050505091929192908035906020019064010000000081111561223557600080fd5b82018360208201111561224757600080fd5b8035906020019184600183028401116401000000008311171561226957600080fd5b91908080601f016020809104026020016040519081016040528093929190818152602001838380828437600081840152601f19601f820116905080830192505050505050509192919290803590602001906401000000008111156122cc57600080fd5b8201836020820111156122de57600080fd5b8035906020019184600183028401116401000000008311171561230057600080fd5b91908080601f016020809104026020016040519081016040528093929190818152602001838380828437600081840152601f19601f8201169050808301925050505050505091929192905050506143ad565b005b612673600480360360c081101561236a57600080fd5b81019080803590602001909291908035906020019064010000000081111561239157600080fd5b8201836020820111156123a357600080fd5b803590602001918460018302840111640100000000831117156123c557600080fd5b91908080601f016020809104026020016040519081016040528093929190818152602001838380828437600081840152601f19601f8201169050808301925050505050505091929192908035906020019064010000000081111561242857600080fd5b82018360208201111561243a57600080fd5b8035906020019184600183028401116401000000008311171561245c57600080fd5b91908080601f016020809104026020016040519081016040528093929190818152602001838380828437600081840152601f19601f820116905080830192505050505050509192919290803590602001906401000000008111156124bf57600080fd5b8201836020820111156124d157600080fd5b803590602001918460018302840111640100000000831117156124f357600080fd5b91908080601f016020809104026020016040519081016040528093929190818152602001838380828437600081840152601f19601f8201169050808301925050505050505091929192908035906020019064010000000081111561255657600080fd5b82018360208201111561256857600080fd5b8035906020019184600183028401116401000000008311171561258a57600080fd5b91908080601f016020809104026020016040519081016040528093929190818152602001838380828437600081840152601f19601f820116905080830192505050505050509192919290803590602001906401000000008111156125ed57600080fd5b8201836020820111156125ff57600080fd5b8035906020019184600183028401116401000000008311171561262157600080fd5b91908080601f016020809104026020016040519081016040528093929190818152602001838380828437600081840152601f19601f8201169050808301925050505050505091929192905050506144e5565b005b6126ab6004803603604081101561268b57600080fd5b810190808035906020019092919080359060200190929190505050614712565b604051808215151515815260200191505060405180910390f35b6126f1600480360360208110156126db57600080fd5b8101908080359060200190929190505050614741565b604051808060200180602001806020018681526020018060200185810385528a818151815260200191508051906020019080838360005b83811015612743578082015181840152602081019050612728565b50505050905090810190601f1680156127705780820380516001836020036101000a031916815260200191505b50858103845289818151815260200191508051906020019080838360005b838110156127a957808201518184015260208101905061278e565b50505050905090810190601f1680156127d65780820380516001836020036101000a031916815260200191505b50858103835288818151815260200191508051906020019080838360005b8381101561280f5780820151818401526020810190506127f4565b50505050905090810190601f16801561283c5780820380516001836020036101000a031916815260200191505b50858103825286818151815260200191508051906020019080838360005b8381101561287557808201518184015260208101905061285a565b50505050905090810190601f1680156128a25780820380516001836020036101000a031916815260200191505b50995050505050505050505060405180910390f35b6040518060c00160405280878152602001868152602001858152602001848152602001838152602001828152506002600089815260200190815260200160002060008201518160000190805190602001906129139291906149d7565b5060208201518160010190805190602001906129309291906149d7565b50604082015181600201908051906020019061294d9291906149d7565b50606082015181600301908051906020019061296a9291906149d7565b5060808201518160040190805190602001906129879291906149d7565b5060a08201518160050190805190602001906129a49291906149d7565b5090505060016007600060038152602001908152602001600020600089815260200190815260200160002060006101000a81548160ff02191690831515021790555060405160200180807f4661696c65640000000000000000000000000000000000000000000000000000815250600601905060405160208183030381529060405280519060200120816040516020018082805190602001908083835b60208310612a645780518252602082019150602081019050602083039250612a41565b6001836020036101000a038019825116818451168082178552505050505050905001915050604051602081830303815290604052805190602001201415612b00576000600490505b60078111612afe5760016007600083815260200190815260200160002060008a815260200190815260200160002060006101000a81548160ff0219169083151502179055508080600101915050612aac565b505b50505050505050565b6002602052806000526040600020600091509050806000018054600181600116156101000203166002900480601f016020809104026020016040519081016040528092919081815260200182805460018160011615610100020316600290048015612bb55780601f10612b8a57610100808354040283529160200191612bb5565b820191906000526020600020905b815481529060010190602001808311612b9857829003601f168201915b505050505090806001018054600181600116156101000203166002900480601f016020809104026020016040519081016040528092919081815260200182805460018160011615610100020316600290048015612c535780601f10612c2857610100808354040283529160200191612c53565b820191906000526020600020905b815481529060010190602001808311612c3657829003601f168201915b505050505090806002018054600181600116156101000203166002900480601f016020809104026020016040519081016040528092919081815260200182805460018160011615610100020316600290048015612cf15780601f10612cc657610100808354040283529160200191612cf1565b820191906000526020600020905b815481529060010190602001808311612cd457829003601f168201915b505050505090806003018054600181600116156101000203166002900480601f016020809104026020016040519081016040528092919081815260200182805460018160011615610100020316600290048015612d8f5780601f10612d6457610100808354040283529160200191612d8f565b820191906000526020600020905b815481529060010190602001808311612d7257829003601f168201915b505050505090806004018054600181600116156101000203166002900480601f016020809104026020016040519081016040528092919081815260200182805460018160011615610100020316600290048015612e2d5780601f10612e0257610100808354040283529160200191612e2d565b820191906000526020600020905b815481529060010190602001808311612e1057829003601f168201915b505050505090806005018054600181600116156101000203166002900480601f016020809104026020016040519081016040528092919081815260200182805460018160011615610100020316600290048015612ecb5780601f10612ea057610100808354040283529160200191612ecb565b820191906000526020600020905b815481529060010190602001808311612eae57829003601f168201915b5050505050905086565b6003602052806000526040600020600091509050806000018054600181600116156101000203166002900480601f016020809104026020016040519081016040528092919081815260200182805460018160011615610100020316600290048015612f815780601f10612f5657610100808354040283529160200191612f81565b820191906000526020600020905b815481529060010190602001808311612f6457829003601f168201915b505050505090806001018054600181600116156101000203166002900480601f01602080910402602001604051908101604052809291908181526020018280546001816001161561010002031660029004801561301f5780601f10612ff45761010080835404028352916020019161301f565b820191906000526020600020905b81548152906001019060200180831161300257829003601f168201915b505050505090806002018054600181600116156101000203166002900480601f0160208091040260200160405190810160405280929190818152602001828054600181600116156101000203166002900480156130bd5780601f10613092576101008083540402835291602001916130bd565b820191906000526020600020905b8154815290600101906020018083116130a057829003601f168201915b505050505090806003018054600181600116156101000203166002900480601f01602080910402602001604051908101604052809291908181526020018280546001816001161561010002031660029004801561315b5780601f106131305761010080835404028352916020019161315b565b820191906000526020600020905b81548152906001019060200180831161313e57829003601f168201915b5050505050908060040154905085565b6004602052806000526040600020600091509050806000018054600181600116156101000203166002900480601f0160208091040260200160405190810160405280929190818152602001828054600181600116156101000203166002900480156132175780601f106131ec57610100808354040283529160200191613217565b820191906000526020600020905b8154815290600101906020018083116131fa57829003601f168201915b505050505090806001018054600181600116156101000203166002900480601f0160208091040260200160405190810160405280929190818152602001828054600181600116156101000203166002900480156132b55780601f1061328a576101008083540402835291602001916132b5565b820191906000526020600020905b81548152906001019060200180831161329857829003601f168201915b505050505090806002018054600181600116156101000203166002900480601f0160208091040260200160405190810160405280929190818152602001828054600181600116156101000203166002900480156133535780601f1061332857610100808354040283529160200191613353565b820191906000526020600020905b81548152906001019060200180831161333657829003601f168201915b505050505090806003018054600181600116156101000203166002900480601f0160208091040260200160405190810160405280929190818152602001828054600181600116156101000203166002900480156133f15780601f106133c6576101008083540402835291602001916133f1565b820191906000526020600020905b8154815290600101906020018083116133d457829003601f168201915b505050505090806004018054600181600116156101000203166002900480601f01602080910402602001604051908101604052809291908181526020018280546001816001161561010002031660029004801561348f5780601f106134645761010080835404028352916020019161348f565b820191906000526020600020905b81548152906001019060200180831161347257829003601f168201915b5050505050905085565b6040518060c00160405280878152602001868152602001858152602001848152602001838152602001828152506005600089815260200190815260200160002060008201518160000190805190602001906134f59291906149d7565b5060208201518160010190805190602001906135129291906149d7565b50604082015181600201908051906020019061352f9291906149d7565b50606082015181600301908051906020019061354c9291906149d7565b5060808201518160040190805190602001906135699291906149d7565b5060a08201518160050190805190602001906135869291906149d7565b5090505060016007600060068152602001908152602001600020600089815260200190815260200160002060006101000a81548160ff02191690831515021790555050505050505050565b6040518060a00160405280868152602001858152602001848152602001838152602001828152506001600088815260200190815260200160002060008201518160000190805190602001906136279291906149d7565b5060208201518160010190805190602001906136449291906149d7565b5060408201518160020190805190602001906136619291906149d7565b506060820151816003015560808201518160040190805190602001906136889291906149d7565b5090505060016007600060028152602001908152602001600020600088815260200190815260200160002060006101000a81548160ff021916908315150217905550505050505050565b6005602052806000526040600020600091509050806000018054600181600116156101000203166002900480601f01602080910402602001604051908101604052809291908181526020018280546001816001161561010002031660029004801561377e5780601f106137535761010080835404028352916020019161377e565b820191906000526020600020905b81548152906001019060200180831161376157829003601f168201915b505050505090806001018054600181600116156101000203166002900480601f01602080910402602001604051908101604052809291908181526020018280546001816001161561010002031660029004801561381c5780601f106137f15761010080835404028352916020019161381c565b820191906000526020600020905b8154815290600101906020018083116137ff57829003601f168201915b505050505090806002018054600181600116156101000203166002900480601f0160208091040260200160405190810160405280929190818152602001828054600181600116156101000203166002900480156138ba5780601f1061388f576101008083540402835291602001916138ba565b820191906000526020600020905b81548152906001019060200180831161389d57829003601f168201915b505050505090806003018054600181600116156101000203166002900480601f0160208091040260200160405190810160405280929190818152602001828054600181600116156101000203166002900480156139585780601f1061392d57610100808354040283529160200191613958565b820191906000526020600020905b81548152906001019060200180831161393b57829003601f168201915b505050505090806004018054600181600116156101000203166002900480601f0160208091040260200160405190810160405280929190818152602001828054600181600116156101000203166002900480156139f65780601f106139cb576101008083540402835291602001916139f6565b820191906000526020600020905b8154815290600101906020018083116139d957829003601f168201915b505050505090806005018054600181600116156101000203166002900480601f016020809104026020016040519081016040528092919081815260200182805460018160011615610100020316600290048015613a945780601f10613a6957610100808354040283529160200191613a94565b820191906000526020600020905b815481529060010190602001808311613a7757829003601f168201915b5050505050905086565b6040518060a0016040528086815260200185815260200184815260200183815260200182815250600360008881526020019081526020016000206000820151816000019080519060200190613af49291906149d7565b506020820151816001019080519060200190613b119291906149d7565b506040820151816002019080519060200190613b2e9291906149d7565b506060820151816003019080519060200190613b4b9291906149d7565b506080820151816004015590505060016007600060048152602001908152602001600020600088815260200190815260200160002060006101000a81548160ff021916908315150217905550505050505050565b6040518060a0016040528086815260200185815260200184815260200183815260200182815250600460008881526020019081526020016000206000820151816000019080519060200190613bf59291906149d7565b506020820151816001019080519060200190613c129291906149d7565b506040820151816002019080519060200190613c2f9291906149d7565b506060820151816003019080519060200190613c4c9291906149d7565b506080820151816004019080519060200190613c699291906149d7565b5090505060016007600060058152602001908152602001600020600088815260200190815260200160002060006101000a81548160ff021916908315150217905550505050505050565b6006602052806000526040600020600091509050806000018054600181600116156101000203166002900480601f016020809104026020016040519081016040528092919081815260200182805460018160011615610100020316600290048015613d5f5780601f10613d3457610100808354040283529160200191613d5f565b820191906000526020600020905b815481529060010190602001808311613d4257829003601f168201915b505050505090806001018054600181600116156101000203166002900480601f016020809104026020016040519081016040528092919081815260200182805460018160011615610100020316600290048015613dfd5780601f10613dd257610100808354040283529160200191613dfd565b820191906000526020600020905b815481529060010190602001808311613de057829003601f168201915b505050505090806002018054600181600116156101000203166002900480601f016020809104026020016040519081016040528092919081815260200182805460018160011615610100020316600290048015613e9b5780601f10613e7057610100808354040283529160200191613e9b565b820191906000526020600020905b815481529060010190602001808311613e7e57829003601f168201915b505050505090806003018054600181600116156101000203166002900480601f016020809104026020016040519081016040528092919081815260200182805460018160011615610100020316600290048015613f395780601f10613f0e57610100808354040283529160200191613f39565b820191906000526020600020905b815481529060010190602001808311613f1c57829003601f168201915b505050505090806004018054600181600116156101000203166002900480601f016020809104026020016040519081016040528092919081815260200182805460018160011615610100020316600290048015613fd75780601f10613fac57610100808354040283529160200191613fd7565b820191906000526020600020905b815481529060010190602001808311613fba57829003601f168201915b505050505090806005018054600181600116156101000203166002900480601f0160208091040260200160405190810160405280929190818152602001828054600181600116156101000203166002900480156140755780601f1061404a57610100808354040283529160200191614075565b820191906000526020600020905b81548152906001019060200180831161405857829003601f168201915b5050505050905086565b6000602052806000526040600020600091509050806000018054600181600116156101000203166002900480601f01602080910402602001604051908101604052809291908181526020018280546001816001161561010002031660029004801561412b5780601f106141005761010080835404028352916020019161412b565b820191906000526020600020905b81548152906001019060200180831161410e57829003601f168201915b505050505090806001018054600181600116156101000203166002900480601f0160208091040260200160405190810160405280929190818152602001828054600181600116156101000203166002900480156141c95780601f1061419e576101008083540402835291602001916141c9565b820191906000526020600020905b8154815290600101906020018083116141ac57829003601f168201915b505050505090806002018054600181600116156101000203166002900480601f0160208091040260200160405190810160405280929190818152602001828054600181600116156101000203166002900480156142675780601f1061423c57610100808354040283529160200191614267565b820191906000526020600020905b81548152906001019060200180831161424a57829003601f168201915b505050505090806003018054600181600116156101000203166002900480601f0160208091040260200160405190810160405280929190818152602001828054600181600116156101000203166002900480156143055780601f106142da57610100808354040283529160200191614305565b820191906000526020600020905b8154815290600101906020018083116142e857829003601f168201915b505050505090806004018054600181600116156101000203166002900480601f0160208091040260200160405190810160405280929190818152602001828054600181600116156101000203166002900480156143a35780601f10614378576101008083540402835291602001916143a3565b820191906000526020600020905b81548152906001019060200180831161438657829003601f168201915b5050505050905085565b6040518060c00160405280878152602001868152602001858152602001848152602001838152602001828152506006600089815260200190815260200160002060008201518160000190805190602001906144099291906149d7565b5060208201518160010190805190602001906144269291906149d7565b5060408201518160020190805190602001906144439291906149d7565b5060608201518160030190805190602001906144609291906149d7565b50608082015181600401908051906020019061447d9291906149d7565b5060a082015181600501908051906020019061449a9291906149d7565b5090505060016007600060078152602001908152602001600020600089815260200190815260200160002060006101000a81548160ff02191690831515021790555050505050505050565b6040518060a0016040528086815260200185815260200184815260200183815260200182815250600080888152602001908152602001600020600082015181600001908051906020019061453a9291906149d7565b5060208201518160010190805190602001906145579291906149d7565b5060408201518160020190805190602001906145749291906149d7565b5060608201518160030190805190602001906145919291906149d7565b5060808201518160040190805190602001906145ae9291906149d7565b5090505060016007600060018152602001908152602001600020600088815260200190815260200160002060006101000a81548160ff02191690831515021790555060405160200180807f4661696c65640000000000000000000000000000000000000000000000000000815250600601905060405160208183030381529060405280519060200120816040516020018082805190602001908083835b6020831061466e578051825260208201915060208101905060208303925061464b565b6001836020036101000a03801982511681845116808217855250505050505090500191505060405160208183030381529060405280519060200120141561470a576000600290505b6007811161470857600160076000838152602001908152602001600020600089815260200190815260200160002060006101000a81548160ff02191690831515021790555080806001019150506146b6565b505b505050505050565b60076020528160005260406000206020528060005260406000206000915091509054906101000a900460ff1681565b6001602052806000526040600020600091509050806000018054600181600116156101000203166002900480601f0160208091040260200160405190810160405280929190818152602001828054600181600116156101000203166002900480156147ed5780601f106147c2576101008083540402835291602001916147ed565b820191906000526020600020905b8154815290600101906020018083116147d057829003601f168201915b505050505090806001018054600181600116156101000203166002900480601f01602080910402602001604051908101604052809291908181526020018280546001816001161561010002031660029004801561488b5780601f106148605761010080835404028352916020019161488b565b820191906000526020600020905b81548152906001019060200180831161486e57829003601f168201915b505050505090806002018054600181600116156101000203166002900480601f0160208091040260200160405190810160405280929190818152602001828054600181600116156101000203166002900480156149295780601f106148fe57610100808354040283529160200191614929565b820191906000526020600020905b81548152906001019060200180831161490c57829003601f168201915b505050505090806003015490806004018054600181600116156101000203166002900480601f0160208091040260200160405190810160405280929190818152602001828054600181600116156101000203166002900480156149cd5780601f106149a2576101008083540402835291602001916149cd565b820191906000526020600020905b8154815290600101906020018083116149b057829003601f168201915b5050505050905085565b828054600181600116156101000203166002900490600052602060002090601f016020900481019282601f10614a1857805160ff1916838001178555614a46565b82800160010185558215614a46579182015b82811115614a45578251825591602001919060010190614a2a565b5b509050614a539190614a57565b5090565b614a7991905b80821115614a75576000816000905550600101614a5d565b5090565b9056fea265627a7a7231582096c88f8a07ac0195272e7824c093b0100dbab48a90c349162243e6ff7f76c43164736f6c63430005100032",
  "source": "// SPDX-License-Identifier: MIT\r\npragma solidity ^0.5.16;\r\n\r\ncontract DrugLifecycle {\r\n    struct QualityControl {\r\n        string testId;\r\n        string testDate;\r\n        string testTime;\r\n        string testerName;\r\n        string result;\r\n    }\r\n\r\n    struct Packaging {\r\n        string packageBatch;\r\n        string packageDate;\r\n        string packageTime;\r\n        uint quantityPackaged;\r\n        string packagingFacility;\r\n    }\r\n\r\n    struct LabTesting {\r\n        string labTestId;\r\n        string labTestDate;\r\n        string labTestTime;\r\n        string labName;\r\n        string testerName;\r\n        string result;\r\n    }\r\n\r\n    struct Distribution {\r\n        string distributionBatch;\r\n        string distributorName;\r\n        string dispatchDate;\r\n        string dispatchTime;\r\n        uint quantityDispatched;\r\n    }\r\n\r\n    struct Logistics {\r\n        string logisticsProvider;\r\n        string pickupDate;\r\n        string pickupTime;\r\n        string deliveryDate;\r\n        string deliveryTime;\r\n    }\r\n\r\n    struct Warehouse {\r\n        string warehouseNumber;\r\n        string arrivalDate;\r\n        string arrivalTime;\r\n        string warehouseName;\r\n        string storageLocation;\r\n        string storageConditions;\r\n    }\r\n\r\n    struct Pharmacy {\r\n        string pharmacyName;\r\n        string drugName;\r\n        string categoryName;\r\n        string drugDescription;\r\n        string manufactureDate;\r\n        string expiryDate;\r\n    }\r\n\r\n    // Mapping from block number to data structures\r\n    mapping(uint256 => QualityControl) public qualityControls;\r\n    mapping(uint256 => Packaging) public packagings;\r\n    mapping(uint256 => LabTesting) public labTests;\r\n    mapping(uint256 => Distribution) public distributions;\r\n    mapping(uint256 => Logistics) public logisticsProviders;\r\n    mapping(uint256 => Warehouse) public warehouses;\r\n    mapping(uint256 => Pharmacy) public pharmacies;\r\n\r\n    // New mapping to track locked boxes\r\n    mapping(uint256 => mapping(uint256 => bool)) public lockedBoxes;\r\n\r\n    function addQualityControl(uint256 blockNumber, string memory testId, string memory testDate, string memory testTime, string memory testerName, string memory result) public {\r\n        qualityControls[blockNumber] = QualityControl(testId, testDate, testTime, testerName, result);\r\n        lockedBoxes[1][blockNumber] = true;\r\n        if (keccak256(abi.encodePacked(result)) == keccak256(abi.encodePacked(\"Failed\"))) {\r\n        // Loop through all boxes (1 to 7 in this case) and lock them\r\n        for (uint256 i = 2; i <= 7; i++) {\r\n            lockedBoxes[i][blockNumber] = true;\r\n        }\r\n    }\r\n    }\r\n\r\n    function addPackaging(uint256 blockNumber, string memory packageBatch, string memory packageDate, string memory packageTime, uint quantityPackaged, string memory packagingFacility) public {\r\n        packagings[blockNumber] = Packaging(packageBatch, packageDate, packageTime, quantityPackaged, packagingFacility);\r\n        lockedBoxes[2][blockNumber] = true;\r\n    }\r\n\r\n    function addLabTesting(uint256 blockNumber, string memory labTestId, string memory labTestDate, string memory labTestTime, string memory labName, string memory testerName, string memory result) public {\r\n        labTests[blockNumber] = LabTesting(labTestId, labTestDate, labTestTime, labName, testerName, result);\r\n        lockedBoxes[3][blockNumber] = true;\r\n        if (keccak256(abi.encodePacked(result)) == keccak256(abi.encodePacked(\"Failed\"))) {\r\n        // Loop through all boxes (1 to 7 in this case) and lock them\r\n        for (uint256 i = 4; i <= 7; i++) {\r\n            lockedBoxes[i][blockNumber] = true;\r\n        }\r\n    }\r\n    }\r\n\r\n    function addDistribution(uint256 blockNumber, string memory distributionBatch, string memory distributorName, string memory dispatchDate, string memory dispatchTime, uint quantityDispatched) public {\r\n        distributions[blockNumber] = Distribution(distributionBatch, distributorName, dispatchDate, dispatchTime, quantityDispatched);\r\n        lockedBoxes[4][blockNumber] = true;\r\n    }\r\n\r\n    function addLogistics(uint256 blockNumber, string memory logisticsProvider, string memory pickupDate, string memory pickupTime, string memory deliveryDate, string memory deliveryTime) public {\r\n        logisticsProviders[blockNumber] = Logistics(logisticsProvider, pickupDate, pickupTime, deliveryDate, deliveryTime);\r\n        lockedBoxes[5][blockNumber] = true;\r\n    }\r\n\r\n    function addWarehouse(uint256 blockNumber, string memory warehouseNumber, string memory arrivalDate, string memory arrivalTime, string memory warehouseName, string memory storageLocation, string memory storageConditions) public {\r\n        warehouses[blockNumber] = Warehouse(warehouseNumber, arrivalDate, arrivalTime, warehouseName, storageLocation, storageConditions);\r\n        lockedBoxes[6][blockNumber] = true;\r\n    }\r\n\r\n    function addPharmacy(uint256 blockNumber, string memory pharmacyName, string memory drugName, string memory categoryName, string memory drugDescription, string memory manufactureDate, string memory expiryDate) public {\r\n        pharmacies[blockNumber] = Pharmacy(pharmacyName, drugName, categoryName, drugDescription, manufactureDate, expiryDate);\r\n        lockedBoxes[7][blockNumber] = true;\r\n    }\r\n\r\n    // New function to lock a box\r\n    // function lockBox(uint256 boxNumber, uint256 blockNumber) public {\r\n    //     lockedBoxes[boxNumber][blockNumber] = true;\r\n    // }\r\n}\r\n",
  "sourcePath": "C:\\Users\\Dhanya\\FYProject\\contracts\\DrugLifeCycle.sol",
  "compiler": {
    "name": "solc",
    "version": "0.5.16+commit.9c3226ce.Emscripten.clang"
  },
  "schemaVersion": "3.4.16",
  "updatedAt": "2024-10-28T04:06:03.573Z",
  "networkType": "ethereum",
  "devdoc": {
    "methods": {}
  },
  "userdoc": {
    "methods": {}
  }
}