{
  "contractName": "PharmaSupplyChain",
  "abi": [
    {
      "inputs": [],
      "payable": false,
      "stateMutability": "nonpayable",
      "type": "constructor"
    },
    {
      "constant": true,
      "inputs": [
        {
          "internalType": "address",
          "name": "",
          "type": "address"
        }
      ],
      "name": "admins",
      "outputs": [
        {
          "internalType": "bool",
          "name": "",
          "type": "bool"
        }
      ],
      "payable": false,
      "stateMutability": "view",
      "type": "function"
    },
    {
      "constant": true,
      "inputs": [
        {
          "internalType": "address",
          "name": "_address",
          "type": "address"
        }
      ],
      "name": "isAdmin",
      "outputs": [
        {
          "internalType": "bool",
          "name": "",
          "type": "bool"
        }
      ],
      "payable": false,
      "stateMutability": "view",
      "type": "function"
    },
    {
      "constant": false,
      "inputs": [],
      "name": "adminFunction",
      "outputs": [],
      "payable": false,
      "stateMutability": "nonpayable",
      "type": "function"
    }
  ],
  "bytecode": "0x608060405234801561001057600080fd5b506001600080733f188c173a0ba3fcd388fd23df301e9aab608a1a73ffffffffffffffffffffffffffffffffffffffff1673ffffffffffffffffffffffffffffffffffffffff16815260200190815260200160002060006101000a81548160ff021916908315150217905550600160008073baecf44a36291552daddacd14476425f29408edb73ffffffffffffffffffffffffffffffffffffffff1673ffffffffffffffffffffffffffffffffffffffff16815260200190815260200160002060006101000a81548160ff021916908315150217905550610278806100f66000396000f3fe608060405234801561001057600080fd5b50600436106100415760003560e01c806324d7806c14610046578063429b62e5146100a257806372ed9987146100fe575b600080fd5b6100886004803603602081101561005c57600080fd5b81019080803573ffffffffffffffffffffffffffffffffffffffff169060200190929190505050610108565b604051808215151515815260200191505060405180910390f35b6100e4600480360360208110156100b857600080fd5b81019080803573ffffffffffffffffffffffffffffffffffffffff16906020019092919050505061015d565b604051808215151515815260200191505060405180910390f35b61010661017d565b005b60008060008373ffffffffffffffffffffffffffffffffffffffff1673ffffffffffffffffffffffffffffffffffffffff16815260200190815260200160002060009054906101000a900460ff169050919050565b60006020528060005260406000206000915054906101000a900460ff1681565b6000803373ffffffffffffffffffffffffffffffffffffffff1673ffffffffffffffffffffffffffffffffffffffff16815260200190815260200160002060009054906101000a900460ff1661021e576040517f08c379a00000000000000000000000000000000000000000000000000000000081526004018080602001828103825260238152602001806102216023913960400191505060405180910390fd5b56fe4f6e6c792061646d696e732063616e20706572666f726d207468697320616374696f6ea265627a7a72315820acb7db5cbacf1edf7cd0905b76c8ba581eff7de58a44c1ded79c54708998413364736f6c63430005100032",
  "source": "pragma solidity ^0.5.16;\r\n\r\ncontract PharmaSupplyChain {\r\n    mapping(address => bool) public admins;\r\n\r\n    constructor() public {\r\n        admins[0x3f188c173a0ba3fCd388fd23dF301E9aAB608a1a] = true; // Admin1\r\n        admins[0xBaeCF44A36291552DaDDACD14476425F29408eDB] = true; // Admin2\r\n    }\r\n\r\n    // Modifier to restrict functions to admins\r\n    modifier onlyAdmin() {\r\n        require(admins[msg.sender], \"Only admins can perform this action\");\r\n        _;\r\n    }\r\n\r\n    // Function to check if an address is an admin\r\n    function isAdmin(address _address) public view returns (bool) {\r\n        return admins[_address];\r\n    }\r\n\r\n    // Example admin function\r\n    function adminFunction() public onlyAdmin {\r\n        // Admin specific functionality\r\n    }\r\n}\r\n",
  "sourcePath": "C:\\Users\\Dhanya\\FYProject\\contracts\\PharmaSupplyChain.sol",
  "compiler": {
    "name": "solc",
    "version": "0.5.16+commit.9c3226ce.Emscripten.clang"
  },
  "schemaVersion": "3.4.16",
  "updatedAt": "2024-07-25T10:15:31.713Z",
  "devdoc": {
    "methods": {}
  },
  "userdoc": {
    "methods": {}
  }
}