{
  "contractName": "PharmaSupplyChain",
  "abi": [
    {
      "inputs": [],
      "payable": false,
      "stateMutability": "nonpayable",
      "type": "constructor"
    },
    {
      "constant": true,
      "inputs": [
        {
          "internalType": "address",
          "name": "",
          "type": "address"
        }
      ],
      "name": "admins",
      "outputs": [
        {
          "internalType": "bool",
          "name": "",
          "type": "bool"
        }
      ],
      "payable": false,
      "stateMutability": "view",
      "type": "function"
    },
    {
      "constant": true,
      "inputs": [
        {
          "internalType": "address",
          "name": "_address",
          "type": "address"
        }
      ],
      "name": "isAdmin",
      "outputs": [
        {
          "internalType": "bool",
          "name": "",
          "type": "bool"
        }
      ],
      "payable": false,
      "stateMutability": "view",
      "type": "function"
    },
    {
      "constant": false,
      "inputs": [],
      "name": "adminFunction",
      "outputs": [],
      "payable": false,
      "stateMutability": "nonpayable",
      "type": "function"
    }
  ],
  "bytecode": "0x608060405234801561001057600080fd5b506001600080733f188c173a0ba3fcd388fd23df301e9aab608a1a73ffffffffffffffffffffffffffffffffffffffff1673ffffffffffffffffffffffffffffffffffffffff16815260200190815260200160002060006101000a81548160ff021916908315150217905550600160008073baecf44a36291552daddacd14476425f29408edb73ffffffffffffffffffffffffffffffffffffffff1673ffffffffffffffffffffffffffffffffffffffff16815260200190815260200160002060006101000a81548160ff021916908315150217905550610349806100f66000396000f3fe608060405234801561001057600080fd5b50600436106100415760003560e01c806324d7806c14610046578063429b62e51461007657806372ed9987146100a6575b600080fd5b610060600480360361005b91908101906101c7565b6100b0565b60405161006d9190610265565b60405180910390f35b610090600480360361008b91908101906101c7565b610105565b60405161009d9190610265565b60405180910390f35b6100ae610125565b005b60008060008373ffffffffffffffffffffffffffffffffffffffff1673ffffffffffffffffffffffffffffffffffffffff16815260200190815260200160002060009054906101000a900460ff169050919050565b60006020528060005260406000206000915054906101000a900460ff1681565b6000803373ffffffffffffffffffffffffffffffffffffffff1673ffffffffffffffffffffffffffffffffffffffff16815260200190815260200160002060009054906101000a900460ff166101b0576040517f08c379a00000000000000000000000000000000000000000000000000000000081526004016101a790610280565b60405180910390fd5b565b6000813590506101c1816102ef565b92915050565b6000602082840312156101d957600080fd5b60006101e7848285016101b2565b91505092915050565b6101f9816102c3565b82525050565b600061020c6023836102a0565b91507f4f6e6c792061646d696e732063616e20706572666f726d20746869732061637460008301527f696f6e00000000000000000000000000000000000000000000000000000000006020830152604082019050919050565b600060208201905061027a60008301846101f0565b92915050565b60006020820190508181036000830152610299816101ff565b9050919050565b600082825260208201905092915050565b60006102bc826102cf565b9050919050565b60008115159050919050565b600073ffffffffffffffffffffffffffffffffffffffff82169050919050565b6102f8816102b1565b811461030357600080fd5b5056fea365627a7a723158203d108c13ec989cae84979b86b45768eddb7a840ae8d64b17fdb0c90ec7311b266c6578706572696d656e74616cf564736f6c63430005100040",
  "source": "pragma solidity ^0.5.16;\r\npragma experimental ABIEncoderV2;\r\n\r\ncontract PharmaSupplyChain {\r\n    mapping(address => bool) public admins;\r\n\r\n    constructor() public {\r\n        // Initialize admin addresses\r\n        admins[0x3f188c173a0ba3fCd388fd23dF301E9aAB608a1a] = true; // Admin1\r\n        admins[0xBaeCF44A36291552DaDDACD14476425F29408eDB] = true; // Admin2\r\n    }\r\n\r\n    modifier onlyAdmin() {\r\n        require(admins[msg.sender], \"Only admins can perform this action\");\r\n        _;\r\n    }\r\n    function isAdmin(address _address) public view returns (bool) {\r\n        return admins[_address];\r\n    }\r\n\r\n    // Example admin function\r\n    function adminFunction() public onlyAdmin {\r\n        // Admin specific functionality\r\n    }\r\n\r\n}",
  "sourcePath": "C:\\Users\\Dhanya\\FYProject\\contracts\\PharmaSupplyChain.sol",
  "compiler": {
    "name": "solc",
    "version": "0.5.16+commit.9c3226ce.Emscripten.clang"
  },
  "schemaVersion": "3.4.16",
  "updatedAt": "2024-09-05T09:15:58.839Z",
  "networkType": "ethereum",
  "devdoc": {
    "methods": {}
  },
  "userdoc": {
    "methods": {}
  }
}